:1000030053696D706C6520646174612076657269F3
:100013006669636174696F6E0D0A00000000000079
:1007E60078237C007D007BFF7A0079037E007F20E2
:1007F60012045212087C1208EC7B007A007923124C
:0408060006FC80F577
:100847004E6F20536932345231204572726F720DE8
:0C0857000A0055AA55AA55000000000038
:0E089400050D01020304050508010203040519
:0B08C200C292D293C297D294C290223F
:10086300E4FEEF339295EF25E0FFD297A296E433AF
:080873004207C2970EBE08EA1D
:01087B00225A
:0E080A007F201208187DFF7FE21208187FE1A0
:10081800C293120863AC07AF05120863D293AF0402
:0108280022AD
:0C08B500C2931208637FFF120863D29305
:0108C1002214
:0706C3007B007551057F303B
:0606CA008B4E8A4F89509F
:1006D000C293120863AD07E4FCECC395515018AB0C
:1006E0004E0550E550AA4F7002054F14F9120478D8
:0B06F000FF1208630C80E2D293AF05FC
:0106FB0022DC
:060764008B4E8A4F895004
:10076A00C293120863AD07E4FCECC3955150177F9E
:10077A00FF120863AB4EAA4FA9508C82758300EF13
:0A078A001204910C80E3D293AF0536
:010794002242
:1006FC00C2927551207FA01206CAD2922094FD7F1F
:10070C00071208B5AB07AD037F27120818EB30E4CE
:10071C000A7DFF7FE11208187F0222EB30E5037F90
:04072C0001227F0027
:0107300022A6
:060731008B128A138914EB
:100737007F071208B5AB07AD037F27120818EB3008
:10074700E618AB12AA13A9147551207F611207642A
:0C0757007DFF7FE21208187F00227F0166
:010763002273
:0A08D800C2927D0E12080AD292228D
:0A08E200C2927D0F12080AD2922282
:1006120078437C007D007BFF7A0879597E007F0554
:1006220012045278487C007D007BFF7A08795E7E56
:10063200007F05120452C2927A0079431206C37BEC
:10064200007A0079487551057F10120764E548B4B5
:100652005517E549B4AA12E54AB4550DE54BB4AABB
:0B06620008E54CB455037F00227F0127
:01066D00226A
:1005B400120612EF600B7BFF7A08794712008880DD
:1005C400EFC2927D207F311208187A00790D12064D
:1005D400C37B007A0079087551057F2A1206CA7D0B
:1005E400017F211208187F221208187D037F24122C
:1005F40008181D7F251208187D0F7F261208187F02
:0E060400201208187F147E00120829D29222BC
:0908EC001208C21205B40208D87A
:0B08CD00EF1FAC0670011E4C70F622FD
:10082900D3EF9400EE940040147D6E7C00ED1D70B2
:0D083900011CED4C70F7EF1F70E61E80E310
:01084600228F
:0408A20002770000D9
:10087C00759850758920758780758DFA858D8BD20A
:08088C00ACD2AFD28ED299224A
:0608F500EF24FF92AC228B
:0E08A700C2ACC2998F993099FDC299D2AC2291
:100795008B158A168917AB15AA16A917120478FFA7
:1007A50060171208A77F057E001208CD7401251772
:0A07B500F517E43516F51680DD2275
:0300230002066E64
:0B066E00C0E0C0D075D000C000C00785
:1006790030983EC298AF99E57720E73530E60CEF20
:10068900640A600280254377808026BF0D05437781
:1006990040801EE5782457F8A6070578E5787002AA
:1006A9000577D3941FE57794004006757700757830
:0106B9000040
:0906BA00D007D000D0D0D0E0320E
:03000000020528CE
:0C052800787FE4F6D8FD7581B802056FFD
:10038200E709F608DFFA8046E709F208DFFA803E5D
:1003920088828C83E709F0A3DFFA8032E309F6084A
:1003A200DFFA8078E309F208DFFA807088828C83B2
:1003B200E309F0A3DFFA806489828A83E0A3F60866
:1003C200DFFA805889828A83E0A3F208DFFA804C40
:1003D20080D280FA80C680D4806980F28033801017
:1003E20080A680EA809A80A880DA80E280CA803380
:1003F20089828A83ECFAE493A3C8C582C8CCC583F8
:10040200CCF0A3C8C582C8CCC583CCDFE9DEE780C7
:100412000D89828A83E493A3F608DFF9ECFAA9F046
:10042200EDFB2289828A83ECFAE0A3C8C582C8CC9C
:10043200C583CCF0A3C8C582C8CCC583CCDFEADEB5
:10044200E880DB89828A83E493A3F208DFF980CC17
:1004520088F0EF60010E4E60C388F0ED2402B40410
:100462000050B9F582EB2402B4040050AF232345B7
:0604720082239003D27307
:10047800BB010689828A83E0225002E722BBFE0282
:09048800E32289828A83E49322B5
:10049100F8BB010DE58229F582E5833AF583E8F0A1
:1004A100225006E92582C8F622BBFE05E92582C84D
:0204B100F22235
:10002600E5522446F8E60552227843300F02784618
:10003600E475F0011204F20204782008EB7F2ED258
:10004600088018EF540F2490D43440D4FF300C0BA2
:10005600EF24BFB41A0050032461FFE55360021574
:10006600530556E55670020555300F0D7843E47575
:10007600F0011204F2EF0204E00207BF7403D20F8C
:100086008003E4C20FF5528B438A448945E4F55355
:10009600F555F556E55360077F2012006180F5752A
:1000A60054FFC209C208C20AC20BC20DC20EC21058
:1000B60012002FFF700D300F057F00120072AF5631
:1000C600AE5522B4255FC2D5C20C12002FFF24D034
:1000D600B40A00501A75F00A785330D50508B6FFF1
:1000E6000106C6A426F620D5047002D20B80D924B8
:1000F600CFB41A00EF5004C2E5D20C020272D20944
:1001060080C6D20880C0D20A80BCD2D580BAD20DB1
:1001160080B47F20120061200A077401B5530040A5
:10012600F1120026FF12006102009AD210D20E8050
:1001360095120026FB120026FA120026F94A4B7089
:100146000679437A037BFF200A2EE553602A7E0058
:100156008E827583001204B360060EEE655470F04D
:10016600C2D5EBC0E0EAC0E0E9C0E0EE1202B9D0C9
:10017600E0F9D0E0FAD0E0FB120478FF60AAEBC009
:10018600E0EAC0E0E9C0E0120061D0E02401F9D065
:10019600E03400FAD0E0FBE5540460DCD554D980A5
:1001A600877BFF7A0279B5D20A809C791080027922
:1001B60008C20EC2108008D2D5790A8004790AC214
:1001C600D5E554047002F554E4FAFDFEFF1200264C
:1001D600FC7B08200913120026FD7B1030080A124A
:1001E6000026FE120026FF7B20EC3382D592D550E6
:1001F60013C3E43008069FFFE49EFEE42009039D36
:10020600FDE49CFCE4CBF8C209EC700CCFCECDCC5F
:10021600E824F8F870F38017C3EF33FFEE33FEEDF2
:1002260033FDEC33FCEB33FB994002FB0FD8E9EBD3
:10023600300905F8D0E0C448B209C0E00AEC4D4EDA
:100246004F78207B0070C2EAB5540040BCC0E01273
:1002560002BBD0F0D0E0200904C4C0E0C4B209C09B
:10026600F012004AD0F0D5F0EB02009A1205020116
:10027600375301B15801084C01044201B54F01BD85
:0F0286004401BD49011D4301C35501A74601A70E
:100295004501A747036350010C2D01102E01332B97
:1002A500011423013120034C2A00CC480000012B06
:1002B5003F3F3F00790AA2D5200B14300D09B91034
:1002C500020404B9080104A2D5200E02500104203D
:1002D5000A68920AB553005034C0E07F20300B19EC
:1002E5007F30A20A720E720D500F120312C20AC29B
:1002F5000EC20DC2107F30800F300D03E9C0E01231
:100305000061300D03D0E0F9D0E0B553CC300D17C6
:100315007F30B9100C1200617F58300C077F788050
:1003250003B90803120061300A057F2D0200617FC1
:10033500202010F87F2B200EF322920A80CF286E02
:10034500756C6C2900D2091200263009F8C20978AB
:100355005330D50108F60200CC2D50434958120000
:10036500262403B405004001E490035E9312005275
:0D037500743A120052D20B7553040201B10C
:100534000207E6E493A3F8E493A34003F68001F2F0
:1005440008DFF48029E493A3F85407240CC8C333C8
:10055400C4540F4420C8834004F456800146F6DF97
:10056400E4800B0102040810204080900894E47E8B
:10057400019360BCA3FF543F30E509541FFEE4938C
:10058400A360010ECF54C025E060A840B8E493A353
:10059400FAE493A3F8E493A3C8C582C8CAC583CA7E
:1005A400F0A3C8C582C8CAC583CADFE9DEE780BE36
:0108A6000051
:1004B300BB010CE58229F582E5833AF583E02250FE
:1004C30006E92582F8E622BBFE06E92582F8E22248
:0D04D300E58229F582E5833AF583E4932262
:1004E000BB010689828A83F0225002F722BBFE01FB
:0204F000F322F5
:1004F200FAE6FB0808E6F925F0F618E6CA3AF6220B
:10050200D083D082F8E4937012740193700DA3A388
:1005120093F8740193F5828883E47374029368609C
:06052200EFA3A3A380DF9C
:1007BF00EFB40A07740D1207CA740A309811A8997A
:1007CF00B8130CC2983098FDA899C298B811F6309A
:0707DF0099FDC299F5992272
:00000001FF
