:0908FA0012087512090302090C31
:1007CC004E6F20536932345231204572726F720D64
:1007DC000A0055AA55AA5500000000002068656C57
:0807EC006C6F200D0A000000F3
:0E08A200054A01020304050545010203040591
:0B08D000C292D293C297D294C2902231
:10085C00E4FEEF339295EF25E0FFD297A296E433B6
:08086C004207C2970EBE08EA24
:010874002261
:0E0003007F201200117DFF7FE21200117FE1CD
:10001100C29312085CAC07AF0512085CD293AF041F
:0100210022BC
:0C08C300C29312085C7FFF12085CD29305
:0108CF002206
:070705007B00751C057F302D
:06070C008B198A1A891BFB
:10071200C29312085CAD07E4FCECC3951C5018AB05
:1007220019051BE51BAA1A7002051A14F91204789E
:0B073200FF12085C0C80E2D293AF05C0
:01073D002299
:060771008B188A19891A99
:10077700C29312085CAD07E4FCECC3951B50177FCE
:10078700FF12085CAB18AA19A91A8C82758300EFAF
:0A0797001204910C80E3D293AF0529
:0107A1002235
:0606BC008B148A1589165B
:1006C200C2921208E6AB14AA15A916751C207FA0C7
:1006D20012070CD2922094FD7F071208C38F17AD28
:1006E200177F271200111208F0E51730E40A7DFF88
:1006F2007FE11200117F0222E51730E5037F01221C
:020702007F0076
:0107040022D2
:06073E008B148A158916D8
:100744007F071208C3AB07AD037F27120011EB30FC
:10075400E618AB14AA15A916751B207F6112077140
:0C0764007DFF7FE21200117F00227F0168
:010770002266
:0A08E600C2927D0E120003D292228E
:0A08F000C2927D0F120003D2922283
:1005B40078087C007D007BFF7A0779DE7E007F056A
:1005C400120452780D7C007D007BFF7A0779E37E6C
:1005D400007F05120452C2927A0079081207057B43
:1005E400007A00790D751B057F10120771E50DB4B3
:1005F4005517E50EB4AA12E50FB4550DE510B4AACB
:0B06040008E511B455037F00227F01C0
:01060F0022C8
:100610001205B4EF600B7BFF7A0779CC120088805B
:10062000EFC2927D207F311200117A00794A1207C1
:10063000057B007A007945751C057F2A12070C7D21
:10064000017F211200117F221200117D037F2412ED
:1006500000111D7F251200117D0F7F261200117FD2
:0706600020120011D29222CA
:090903001208D01206100208F0DF
:10088D007B007A00790812073EEF7008FB7A007939
:04089D00081207A294
:0108A1002234
:10081B0078087C007D007BFF7A0779E87E007F0CEF
:10082B001204527B007A0079081206BC7FF47E0119
:03083B0002083E72
:08090C0012088D12081B80F88F
:0B08DB00EF1FAC0670011E4C70F622EF
:10083E00D3EF9400EE940040147D6E7C00ED1D709D
:0D084E00011CED4C70F7EF1F70E61E80E3FB
:01085B00227A
:0408B00002430000FF
:10087500759850758920758780758DFA858D8BD211
:08088500ACD2AFD28ED2992251
:06091400EF24FF92AC226B
:0E08B500C2ACC2998F993099FDC299D2AC2283
:1007A2008B148A158916AB14AA15A916120478FFA0
:1007B20060171208B57F057E001208DB740125164A
:0A07C200F516E43515F51580DD226B
:030023000206676B
:0B066700C0E0C0D075D000C000C0078C
:1006720030983EC298AF99E54320E73530E60CEF5B
:10068200640A600280254343808026BF0D054343F0
:1006920040801EE5442423F8A6070544E544700281
:1006A2000543D3941FE54394004006754300754407
:0106B2000047
:0906B300D007D000D0D0D0E03215
:03000000020528CE
:0C052800787FE4F6D8FD75818E02056F27
:10038200E709F608DFFA8046E709F208DFFA803E5D
:1003920088828C83E709F0A3DFFA8032E309F6084A
:1003A200DFFA8078E309F208DFFA807088828C83B2
:1003B200E309F0A3DFFA806489828A83E0A3F60866
:1003C200DFFA805889828A83E0A3F208DFFA804C40
:1003D20080D280FA80C680D4806980F28033801017
:1003E20080A680EA809A80A880DA80E280CA803380
:1003F20089828A83ECFAE493A3C8C582C8CCC583F8
:10040200CCF0A3C8C582C8CCC583CCDFE9DEE780C7
:100412000D89828A83E493A3F608DFF9ECFAA9F046
:10042200EDFB2289828A83ECFAE0A3C8C582C8CC9C
:10043200C583CCF0A3C8C582C8CCC583CCDFEADEB5
:10044200E880DB89828A83E493A3F208DFF980CC17
:1004520088F0EF60010E4E60C388F0ED2402B40410
:100462000050B9F582EB2402B4040050AF232345B7
:0604720082239003D27307
:10047800BB010689828A83E0225002E722BBFE0282
:09048800E32289828A83E49322B5
:10049100F8BB010DE58229F582E5833AF583E8F0A1
:1004A100225006E92582C8F622BBFE05E92582C84D
:0204B100F22235
:10002600E517240BF8E60517227808300F02780B3F
:10003600E475F0011204F20204782008EB7F2ED258
:10004600088018EF540F2490D43440D4FF300C0BA2
:10005600EF24BFB41A0050032461FFE518600215AF
:1000660018051BE51B7002051A300F0D7808E4759C
:10007600F0011204F2EF0204E00207F47403D20F57
:100086008003E4C20FF5178B088A09890AE4F5187C
:10009600F51AF51BE51860077F2012006180F575DB
:1000A60019FFC209C208C20AC20BC20DC20EC21093
:1000B60012002FFF700D300F057F00120072AF1B6C
:1000C600AE1A22B4255FC2D5C20C12002FFF24D06F
:1000D600B40A00501A75F00A781830D50508B6FF2C
:1000E6000106C6A426F620D5047002D20B80D924B8
:1000F600CFB41A00EF5004C2E5D20C020272D20944
:1001060080C6D20880C0D20A80BCD2D580BAD20DB1
:1001160080B47F20120061200A077401B5180040E0
:10012600F1120026FF12006102009AD210D20E8050
:1001360095120026FB120026FA120026F94A4B7089
:100146000679437A037BFF200A2EE518602A7E0093
:100156008E827583001204B360060EEE651970F088
:10016600C2D5EBC0E0EAC0E0E9C0E0EE1202B9D0C9
:10017600E0F9D0E0FAD0E0FB120478FF60AAEBC009
:10018600E0EAC0E0E9C0E0120061D0E02401F9D065
:10019600E03400FAD0E0FBE5190460DCD519D9801B
:1001A600877BFF7A0279B5D20A809C791080027922
:1001B60008C20EC2108008D2D5790A8004790AC214
:1001C600D5E519047002F519E4FAFDFEFF120026C2
:1001D600FC7B08200913120026FD7B1030080A124A
:1001E6000026FE120026FF7B20EC3382D592D550E6
:1001F60013C3E43008069FFFE49EFEE42009039D36
:10020600FDE49CFCE4CBF8C209EC700CCFCECDCC5F
:10021600E824F8F870F38017C3EF33FFEE33FEEDF2
:1002260033FDEC33FCEB33FB994002FB0FD8E9EBD3
:10023600300905F8D0E0C448B209C0E00AEC4D4EDA
:100246004F78207B0070C2EAB5190040BCC0E012AE
:1002560002BBD0F0D0E0200904C4C0E0C4B209C09B
:10026600F012004AD0F0D5F0EB02009A1205020116
:10027600375301B15801084C01044201B54F01BD85
:0F0286004401BD49011D4301C35501A74601A70E
:100295004501A747036350010C2D01102E01332B97
:1002A500011423013120034C2A00CC480000012B06
:1002B5003F3F3F00790AA2D5200B14300D09B91034
:1002C500020404B9080104A2D5200E02500104203D
:1002D5000A68920AB518005034C0E07F20300B1927
:1002E5007F30A20A720E720D500F120312C20AC29B
:1002F5000EC20DC2107F30800F300D03E9C0E01231
:100305000061300D03D0E0F9D0E0B518CC300D1701
:100315007F30B9100C1200617F58300C077F788050
:1003250003B90803120061300A057F2D0200617FC1
:10033500202010F87F2B200EF322920A80CF286E02
:10034500756C6C2900D2091200263009F8C20978AB
:100355001830D50108F60200CC2D5043495812003B
:10036500262403B405004001E490035E9312005275
:0D037500743A120052D20B7518040201B147
:100534000208FAE493A3F8E493A34003F68001F2DB
:1005440008DFF48029E493A3F85407240CC8C333C8
:10055400C4540F4420C8834004F456800146F6DF97
:10056400E4800B01020408102040809008A2E47E7D
:10057400019360BCA3FF543F30E509541FFEE4938C
:10058400A360010ECF54C025E060A840B8E493A353
:10059400FAE493A3F8E493A3C8C582C8CAC583CA7E
:1005A400F0A3C8C582C8CAC583CADFE9DEE780BE36
:0108B4000043
:1004B300BB010CE58229F582E5833AF583E02250FE
:1004C30006E92582F8E622BBFE06E92582F8E22248
:0D04D300E58229F582E5833AF583E4932262
:1004E000BB010689828A83F0225002F722BBFE01FB
:0204F000F322F5
:1004F200FAE6FB0808E6F925F0F618E6CA3AF6220B
:10050200D083D082F8E4937012740193700DA3A388
:1005120093F8740193F5828883E47374029368609C
:06052200EFA3A3A380DF9C
:1007F400EFB40A07740D1207FF740A309811A89910
:10080400B8130CC2983098FDA899C298B811F63064
:0708140099FDC299F599223C
:00000001FF
